:100000000EC01DC01CC01BC01AC0B1C018C017C094
:1000100016C015C014C013C012C011C010C01124E6
:100020001FBECFE5D2E0DEBFCDBF20E0A0E6B0E04E
:1000300001C01D92A636B207E1F7D5D0EEC0E0CFE1
:10004000CF92DF92EF92FF929FB7F894C090620038
:10005000D0906300E0906400F09065003091610002
:1000600022B788B7482F427081FF04C041E02F3F7C
:1000700009F440E09FBFC701B60157E0660F771F44
:10008000881F991F5A95D1F7630F711D811D911D0E
:100090006C197D098E099F09CC0CDD1CEE1CFF1C20
:1000A0006C197D098E099F09F3E0660F771F881F81
:1000B000991FFA95D1F730E0F22FEE27B3E0220F27
:1000C000331FBA95E1F7DF01A21BB30B9D0156E088
:1000D000369527955A95E1F7620F731F811D911D83
:1000E000442321F060527C4F8F4F9F4FFF90EF9041
:1000F000DF90CF900895CF92DF92EF92FF92CF934F
:10010000DF939EDFEB0188EEC82E83E0D82EE12C32
:10011000F12C96DF6C1B7D0B683E7340A0F0C11480
:10012000D104E104F10439F4DF91CF91FF90EF9015
:10013000DF90CF90089581E0C81AD108E108F10856
:10014000C851DC4FE6CFC114D104E104F10409F732
:10015000EBCF90B79F7D90BF811105C08FB7F8940A
:10016000C1988FBF08958FB7F894C19AFACF1F92A4
:100170000F920FB60F9211244F935F936F937F935B
:100180008F939F934091620050916300609164004F
:100190007091650080916100909160009F5F9093E5
:1001A00060009F3108F48F5F9CE7980F9D3730F017
:1001B0009FEF980F4F5F5F4F6F4F7F4F909361009E
:1001C00040936200509363006093640070936500F5
:1001D0009F918F917F916F915F914F910F900FBE83
:1001E0000F901F90189583E08ABD83BF789489B7DC
:1001F000826089BF80E48CBD8FEF8DBD87EC80BFAE
:1002000087E886B98FB7F894B99A8FBF81E0A1DFEC
:0E02100072DF80E09EDF6FDFF9CFF894FFCF42
:00000001FF
